{
  "contractName": "MyToken",
  "abi": [
    {
      "constant": true,
      "inputs": [],
      "name": "name",
      "outputs": [
        {
          "name": "",
          "type": "string"
        }
      ],
      "payable": false,
      "stateMutability": "view",
      "type": "function"
    },
    {
      "constant": true,
      "inputs": [],
      "name": "totalSupply",
      "outputs": [
        {
          "name": "",
          "type": "uint256"
        }
      ],
      "payable": false,
      "stateMutability": "view",
      "type": "function"
    },
    {
      "constant": true,
      "inputs": [],
      "name": "decimals",
      "outputs": [
        {
          "name": "",
          "type": "uint8"
        }
      ],
      "payable": false,
      "stateMutability": "view",
      "type": "function"
    },
    {
      "constant": true,
      "inputs": [],
      "name": "symbol",
      "outputs": [
        {
          "name": "",
          "type": "string"
        }
      ],
      "payable": false,
      "stateMutability": "view",
      "type": "function"
    },
    {
      "payable": true,
      "stateMutability": "payable",
      "type": "fallback"
    },
    {
      "anonymous": false,
      "inputs": [
        {
          "indexed": true,
          "name": "_owner",
          "type": "address"
        },
        {
          "indexed": true,
          "name": "_spender",
          "type": "address"
        },
        {
          "indexed": false,
          "name": "_value",
          "type": "uint256"
        }
      ],
      "name": "Approval",
      "type": "event"
    },
    {
      "anonymous": false,
      "inputs": [
        {
          "indexed": true,
          "name": "from",
          "type": "address"
        },
        {
          "indexed": true,
          "name": "to",
          "type": "address"
        },
        {
          "indexed": false,
          "name": "value",
          "type": "uint256"
        },
        {
          "indexed": true,
          "name": "data",
          "type": "bytes"
        }
      ],
      "name": "Transfer",
      "type": "event"
    },
    {
      "anonymous": false,
      "inputs": [
        {
          "indexed": true,
          "name": "_from",
          "type": "address"
        },
        {
          "indexed": true,
          "name": "_to",
          "type": "address"
        },
        {
          "indexed": false,
          "name": "_value",
          "type": "uint256"
        }
      ],
      "name": "Transfer",
      "type": "event"
    },
    {
      "constant": true,
      "inputs": [
        {
          "name": "_owner",
          "type": "address"
        }
      ],
      "name": "balanceOf",
      "outputs": [
        {
          "name": "",
          "type": "uint256"
        }
      ],
      "payable": false,
      "stateMutability": "view",
      "type": "function"
    },
    {
      "constant": false,
      "inputs": [
        {
          "name": "_to",
          "type": "address"
        },
        {
          "name": "_value",
          "type": "uint256"
        }
      ],
      "name": "transfer",
      "outputs": [
        {
          "name": "",
          "type": "bool"
        }
      ],
      "payable": false,
      "stateMutability": "nonpayable",
      "type": "function"
    },
    {
      "constant": false,
      "inputs": [
        {
          "name": "_to",
          "type": "address"
        },
        {
          "name": "_value",
          "type": "uint256"
        },
        {
          "name": "_data",
          "type": "bytes"
        }
      ],
      "name": "transfer",
      "outputs": [
        {
          "name": "",
          "type": "bool"
        }
      ],
      "payable": false,
      "stateMutability": "nonpayable",
      "type": "function"
    },
    {
      "constant": false,
      "inputs": [
        {
          "name": "_from",
          "type": "address"
        },
        {
          "name": "_to",
          "type": "address"
        },
        {
          "name": "_value",
          "type": "uint256"
        }
      ],
      "name": "transferFrom",
      "outputs": [
        {
          "name": "",
          "type": "bool"
        }
      ],
      "payable": false,
      "stateMutability": "nonpayable",
      "type": "function"
    },
    {
      "constant": false,
      "inputs": [
        {
          "name": "_from",
          "type": "address"
        },
        {
          "name": "_to",
          "type": "address"
        },
        {
          "name": "_value",
          "type": "uint256"
        },
        {
          "name": "_data",
          "type": "bytes"
        }
      ],
      "name": "transferFrom",
      "outputs": [
        {
          "name": "",
          "type": "bool"
        }
      ],
      "payable": false,
      "stateMutability": "nonpayable",
      "type": "function"
    },
    {
      "constant": false,
      "inputs": [
        {
          "name": "_spender",
          "type": "address"
        },
        {
          "name": "_value",
          "type": "uint256"
        }
      ],
      "name": "approve",
      "outputs": [
        {
          "name": "",
          "type": "bool"
        }
      ],
      "payable": false,
      "stateMutability": "nonpayable",
      "type": "function"
    },
    {
      "constant": true,
      "inputs": [
        {
          "name": "_owner",
          "type": "address"
        },
        {
          "name": "_spender",
          "type": "address"
        }
      ],
      "name": "allowance",
      "outputs": [
        {
          "name": "",
          "type": "uint256"
        }
      ],
      "payable": false,
      "stateMutability": "view",
      "type": "function"
    }
  ],
  "bytecode": "0x60806040526040805190810160405280600381526020017f43544b0000000000000000000000000000000000000000000000000000000000815250600090805190602001906200005192919062000112565b506040805190810160405280600981526020017f43757420546f6b656e0000000000000000000000000000000000000000000000815250600190805190602001906200009f92919062000112565b506000600260006101000a81548160ff021916908360ff160217905550620186a0600381905550600354600460003373ffffffffffffffffffffffffffffffffffffffff1673ffffffffffffffffffffffffffffffffffffffff16815260200190815260200160002081905550620001c1565b828054600181600116156101000203166002900490600052602060002090601f016020900481019282601f106200015557805160ff191683800117855562000186565b8280016001018555821562000186579182015b828111156200018557825182559160200191906001019062000168565b5b50905062000195919062000199565b5090565b620001be91905b80821115620001ba576000816000905550600101620001a0565b5090565b90565b61125f80620001d16000396000f3006080604052600436106100af576000357c0100000000000000000000000000000000000000000000000000000000900463ffffffff16806306fdde03146100b4578063095ea7b31461014457806318160ddd146101a957806323b872dd146101d4578063313ce5671461025957806370a082311461028a57806395d89b41146102e1578063a9059cbb14610371578063ab67aa58146103d6578063be45fd62146104a1578063dd62ed3e1461054c575b600080fd5b3480156100c057600080fd5b506100c96105c3565b6040518080602001828103825283818151815260200191508051906020019080838360005b838110156101095780820151818401526020810190506100ee565b50505050905090810190601f1680156101365780820380516001836020036101000a031916815260200191505b509250505060405180910390f35b34801561015057600080fd5b5061018f600480360381019080803573ffffffffffffffffffffffffffffffffffffffff16906020019092919080359060200190929190505050610665565b604051808215151515815260200191505060405180910390f35b3480156101b557600080fd5b506101be6107a9565b6040518082815260200191505060405180910390f35b3480156101e057600080fd5b5061023f600480360381019080803573ffffffffffffffffffffffffffffffffffffffff169060200190929190803573ffffffffffffffffffffffffffffffffffffffff169060200190929190803590602001909291905050506107b3565b604051808215151515815260200191505060405180910390f35b34801561026557600080fd5b5061026e6107da565b604051808260ff1660ff16815260200191505060405180910390f35b34801561029657600080fd5b506102cb600480360381019080803573ffffffffffffffffffffffffffffffffffffffff1690602001909291905050506107f1565b6040518082815260200191505060405180910390f35b3480156102ed57600080fd5b506102f661083a565b6040518080602001828103825283818151815260200191508051906020019080838360005b8381101561033657808201518184015260208101905061031b565b50505050905090810190601f1680156103635780820380516001836020036101000a031916815260200191505b509250505060405180910390f35b34801561037d57600080fd5b506103bc600480360381019080803573ffffffffffffffffffffffffffffffffffffffff169060200190929190803590602001909291905050506108dc565b604051808215151515815260200191505060405180910390f35b3480156103e257600080fd5b50610487600480360381019080803573ffffffffffffffffffffffffffffffffffffffff169060200190929190803573ffffffffffffffffffffffffffffffffffffffff16906020019092919080359060200190929190803590602001908201803590602001908080601f0160208091040260200160405190810160405280939291908181526020018383808284378201915050505050509192919290505050610901565b604051808215151515815260200191505060405180910390f35b3480156104ad57600080fd5b50610532600480360381019080803573ffffffffffffffffffffffffffffffffffffffff16906020019092919080359060200190929190803590602001908201803590602001908080601f0160208091040260200160405190810160405280939291908181526020018383808284378201915050505050509192919290505050610cc0565b604051808215151515815260200191505060405180910390f35b34801561055857600080fd5b506105ad600480360381019080803573ffffffffffffffffffffffffffffffffffffffff169060200190929190803573ffffffffffffffffffffffffffffffffffffffff169060200190929190505050611059565b6040518082815260200191505060405180910390f35b606060018054600181600116156101000203166002900480601f01602080910402602001604051908101604052809291908181526020018280546001816001161561010002031660029004801561065b5780601f106106305761010080835404028352916020019161065b565b820191906000526020600020905b81548152906001019060200180831161063e57829003601f168201915b5050505050905090565b600081600760003373ffffffffffffffffffffffffffffffffffffffff1673ffffffffffffffffffffffffffffffffffffffff1681526020019081526020016000205410151561079e5781600860003373ffffffffffffffffffffffffffffffffffffffff1673ffffffffffffffffffffffffffffffffffffffff16815260200190815260200160002060008573ffffffffffffffffffffffffffffffffffffffff1673ffffffffffffffffffffffffffffffffffffffff168152602001908152602001600020819055508273ffffffffffffffffffffffffffffffffffffffff163373ffffffffffffffffffffffffffffffffffffffff167f8c5be1e5ebec7d5bd14f71427d1e84f3dd0314c0f7b2291e5b200ac8c7c3b925846040518082815260200191505060405180910390a3600190506107a3565b600090505b92915050565b6000600354905090565b60006107d18484846020604051908101604052806000815250610901565b90509392505050565b6000600260009054906101000a900460ff16905090565b6000600760008373ffffffffffffffffffffffffffffffffffffffff1673ffffffffffffffffffffffffffffffffffffffff168152602001908152602001600020549050919050565b606060008054600181600116156101000203166002900480601f0160208091040260200160405190810160405280929190818152602001828054600181600116156101000203166002900480156108d25780601f106108a7576101008083540402835291602001916108d2565b820191906000526020600020905b8154815290600101906020018083116108b557829003601f168201915b5050505050905090565b60006108f983836020604051908101604052806000815250610cc0565b905092915050565b600080600084118015610990575083600860008873ffffffffffffffffffffffffffffffffffffffff1673ffffffffffffffffffffffffffffffffffffffff16815260200190815260200160002060003373ffffffffffffffffffffffffffffffffffffffff1673ffffffffffffffffffffffffffffffffffffffff1681526020019081526020016000205410155b80156109db575083600760008873ffffffffffffffffffffffffffffffffffffffff1673ffffffffffffffffffffffffffffffffffffffff1681526020019081526020016000205410155b15610cb2576109e9856111eb565b15610b1a578490508073ffffffffffffffffffffffffffffffffffffffff1663c0ee0b8a3386866040518463ffffffff167c0100000000000000000000000000000000000000000000000000000000028152600401808473ffffffffffffffffffffffffffffffffffffffff1673ffffffffffffffffffffffffffffffffffffffff16815260200183815260200180602001828103825283818151815260200191508051906020019080838360005b83811015610ab3578082015181840152602081019050610a98565b50505050905090810190601f168015610ae05780820380516001836020036101000a031916815260200191505b50945050505050600060405180830381600087803b158015610b0157600080fd5b505af1158015610b15573d6000803e3d6000fd5b505050505b610b6c84600760008973ffffffffffffffffffffffffffffffffffffffff1673ffffffffffffffffffffffffffffffffffffffff168152602001908152602001600020546111fe90919063ffffffff16565b600760008873ffffffffffffffffffffffffffffffffffffffff1673ffffffffffffffffffffffffffffffffffffffff16815260200190815260200160002081905550610c0184600760008873ffffffffffffffffffffffffffffffffffffffff1673ffffffffffffffffffffffffffffffffffffffff1681526020019081526020016000205461121790919063ffffffff16565b600760008773ffffffffffffffffffffffffffffffffffffffff1673ffffffffffffffffffffffffffffffffffffffff168152602001908152602001600020819055508473ffffffffffffffffffffffffffffffffffffffff168673ffffffffffffffffffffffffffffffffffffffff167fddf252ad1be2c89b69c2b068fc378daa952ba7f163c4a11628f55a4df523b3ef866040518082815260200191505060405180910390a360019150610cb7565b600091505b50949350505050565b600080600084118015610d12575083600760003373ffffffffffffffffffffffffffffffffffffffff1673ffffffffffffffffffffffffffffffffffffffff1681526020019081526020016000205410155b1561104c57610d20856111eb565b15610e51578490508073ffffffffffffffffffffffffffffffffffffffff1663c0ee0b8a3386866040518463ffffffff167c0100000000000000000000000000000000000000000000000000000000028152600401808473ffffffffffffffffffffffffffffffffffffffff1673ffffffffffffffffffffffffffffffffffffffff16815260200183815260200180602001828103825283818151815260200191508051906020019080838360005b83811015610dea578082015181840152602081019050610dcf565b50505050905090810190601f168015610e175780820380516001836020036101000a031916815260200191505b50945050505050600060405180830381600087803b158015610e3857600080fd5b505af1158015610e4c573d6000803e3d6000fd5b505050505b610ea384600760003373ffffffffffffffffffffffffffffffffffffffff1673ffffffffffffffffffffffffffffffffffffffff168152602001908152602001600020546111fe90919063ffffffff16565b600760003373ffffffffffffffffffffffffffffffffffffffff1673ffffffffffffffffffffffffffffffffffffffff16815260200190815260200160002081905550610f3884600760008873ffffffffffffffffffffffffffffffffffffffff1673ffffffffffffffffffffffffffffffffffffffff1681526020019081526020016000205461121790919063ffffffff16565b600760008773ffffffffffffffffffffffffffffffffffffffff1673ffffffffffffffffffffffffffffffffffffffff16815260200190815260200160002081905550826040518082805190602001908083835b602083101515610fb15780518252602082019150602081019050602083039250610f8c565b6001836020036101000a03801982511681845116808217855250505050505090500191505060405180910390208573ffffffffffffffffffffffffffffffffffffffff163373ffffffffffffffffffffffffffffffffffffffff167fe19260aff97b920c7df27010903aeb9c8d2be5d310a2c67824cf3f15396e4c16876040518082815260200191505060405180910390a460019150611051565b600091505b509392505050565b6000600760008473ffffffffffffffffffffffffffffffffffffffff1673ffffffffffffffffffffffffffffffffffffffff16815260200190815260200160002054600860008573ffffffffffffffffffffffffffffffffffffffff1673ffffffffffffffffffffffffffffffffffffffff16815260200190815260200160002060008473ffffffffffffffffffffffffffffffffffffffff1673ffffffffffffffffffffffffffffffffffffffff1681526020019081526020016000205410156111a257600860008473ffffffffffffffffffffffffffffffffffffffff1673ffffffffffffffffffffffffffffffffffffffff16815260200190815260200160002060008373ffffffffffffffffffffffffffffffffffffffff1673ffffffffffffffffffffffffffffffffffffffff1681526020019081526020016000205490506111e5565b600760008473ffffffffffffffffffffffffffffffffffffffff1673ffffffffffffffffffffffffffffffffffffffff1681526020019081526020016000205490505b92915050565b600080823b905060008111915050919050565b600082821115151561120c57fe5b818303905092915050565b6000818301905082811015151561122a57fe5b809050929150505600a165627a7a723058200725ce064f13a0416e723fde7664352b051d74eaf9b2700c17c677caaedc77ad0029",
  "source": "pragma solidity ^0.4.23;\r\n\r\nimport \"./Token.sol\";\r\nimport \"./ERC20.sol\";\r\nimport \"./SafeMath.sol\";\r\nimport \"./ERC223.sol\";\r\nimport \"./ERC223ReceivingContract.sol\";\r\n\r\ncontract MyToken is Token, ERC223, ERC20{\r\n\r\n    Token private token;\r\n\r\n    using SafeMath for uint256;\r\n\r\n    mapping (address =>uint) internal _balanceOf;\r\n    mapping (address => mapping(address => uint)) internal _allowances;\r\n\r\n\r\n    function balanceOf(address _owner) public view returns(uint){\r\n        return _balanceOf[_owner];\r\n    }\r\n\r\n    //assemble the given address bytecode. If bytecode exists then the _addr is a contract.\r\n    function isContract(address _addr) private view returns (bool is_contract) {\r\n        uint length;\r\n        assembly {\r\n        //retrieve the size of the code on target address, this needs assembly\r\n            length := extcodesize(_addr)\r\n        }\r\n        return (length>0);\r\n    }\r\n\r\n    function transfer(address _to, uint _value) public returns (bool){\r\n        return transfer(_to, _value, \"\");\r\n    }\r\n\r\n    function transfer(address _to, uint _value, bytes _data) public returns (bool){\r\n        if(_value>0 && _balanceOf[msg.sender] >= _value){\r\n            if(isContract(_to)){\r\n                ERC223ReceivingContract _contract = ERC223ReceivingContract(_to);\r\n                _contract.tokenFallback(msg.sender,_value, _data);\r\n            }\r\n            _balanceOf[msg.sender] = _balanceOf[msg.sender].sub(_value);\r\n            _balanceOf[_to] = _balanceOf[_to].add(_value);\r\n            emit Transfer(msg.sender, _to, _value, _data);\r\n            return true;\r\n        } else{\r\n            return false;\r\n        }\r\n    }\r\n\r\n    function transferFrom(address _from, address _to, uint _value) public returns (bool) {\r\n        return transferFrom(_from, _to, _value,\"\");\r\n    }\r\n\r\n    function transferFrom(address _from, address _to, uint _value, bytes _data) public returns (bool) {\r\n        if(_value >0 &&\r\n        _allowances[_from][msg.sender]>= _value &&\r\n        _balanceOf[_from] >= _value){\r\n            if(isContract(_to)){\r\n                ERC223ReceivingContract _contract = ERC223ReceivingContract(_to);\r\n                _contract.tokenFallback(msg.sender,_value, _data);\r\n            }\r\n            _balanceOf[_from] = _balanceOf[_from].sub(_value);\r\n            _balanceOf[_to] = _balanceOf[_to].add(_value);\r\n            emit Transfer(_from, _to, _value);\r\n            return true;\r\n        }\r\n        return false;\r\n    }\r\n\r\n    function approve(address _spender, uint _value)\r\n    public\r\n    returns (bool){\r\n        if(_balanceOf[msg.sender]>= _value){\r\n            _allowances[msg.sender][_spender] = _value;\r\n            emit Approval(msg.sender, _spender, _value);\r\n            return true;\r\n        }\r\n        return false;\r\n    }\r\n\r\n    function allowance(address _owner, address _spender) public view returns (uint)\r\n    {\r\n        if(_allowances[_owner][_spender]< _balanceOf[_owner]){\r\n            return _allowances[_owner][_spender];\r\n        }\r\n        return _balanceOf[_owner];\r\n    }\r\n\r\n    // standard function transfer similar to erc20 transfer without no data\r\n\r\n    //    function transfer(address _to, uint _value) public returns (bool success){\r\n    //        bytes memory empty;\r\n    //        if(isContract(_to)){\r\n    //            return transferToContract(_to,_value, empty);\r\n    //        }else{\r\n    //            return transfereToAddress(_to,_value, empty);\r\n    //        }\r\n    //    }\r\n    //\r\n    //    function transferToAddress(address _to, uint _value, bytes _data) private returns (bool success){\r\n    //        if(_balanceOf[msg.sender] < _value) revert();\r\n    //        _balanceOf[msg.sender] = sub(_balanceOf[msg.sender],tokens);\r\n    //        _balanceOf[_to] = add(_balanceOf[_to], tokens);\r\n    //        Transfer(msg.sender, _to, _value, _data);\r\n    //        return true;\r\n    //    }\r\n    //\r\n    //    function transferToContract(address _to, uint _value, bytes _data) private returns (bool success) {\r\n    //        if(_balanceOf[msg.sender] < _value) revert();\r\n    //        _balanceOf[msg.sender] = sub(_balanceOf[msg.sender],tokens);\r\n    //        _balanceOf[_to] = add(_balanceOf[_to], tokens);\r\n    //\r\n    //        Transfer(msg.sender, _to, _value, _data);\r\n    //        return true;\r\n    //    }\r\n    // dont accept eth\r\n    function() public payable {\r\n        revert();\r\n    }\r\n\r\n}\r\n\r\n",
  "sourcePath": "D:\\code\\wallet\\contracts\\MyToken.sol",
  "compiler": {
    "name": "solc",
    "version": "0.4.23+commit.124ca40d.Emscripten.clang"
  },
  "schemaVersion": "2.0.0",
  "updatedAt": "2018-05-16T06:34:17.862Z"
}