{
  "contractName": "Owned",
  "abi": [
    {
      "constant": true,
      "inputs": [],
      "name": "owner",
      "outputs": [
        {
          "name": "",
          "type": "address"
        }
      ],
      "payable": false,
      "stateMutability": "view",
      "type": "function"
    },
    {
      "constant": true,
      "inputs": [],
      "name": "newOwner",
      "outputs": [
        {
          "name": "",
          "type": "address"
        }
      ],
      "payable": false,
      "stateMutability": "view",
      "type": "function"
    },
    {
      "inputs": [],
      "payable": false,
      "stateMutability": "nonpayable",
      "type": "constructor"
    },
    {
      "anonymous": false,
      "inputs": [
        {
          "indexed": true,
          "name": "_from",
          "type": "address"
        },
        {
          "indexed": true,
          "name": "_to",
          "type": "address"
        }
      ],
      "name": "OwnershipTransferred",
      "type": "event"
    },
    {
      "constant": false,
      "inputs": [
        {
          "name": "_newOwner",
          "type": "address"
        }
      ],
      "name": "transferOwnerShip",
      "outputs": [],
      "payable": false,
      "stateMutability": "nonpayable",
      "type": "function"
    },
    {
      "constant": false,
      "inputs": [],
      "name": "acceptOwnership",
      "outputs": [],
      "payable": false,
      "stateMutability": "nonpayable",
      "type": "function"
    }
  ],
  "bytecode": "0x608060405234801561001057600080fd5b50336000806101000a81548173ffffffffffffffffffffffffffffffffffffffff021916908373ffffffffffffffffffffffffffffffffffffffff160217905550610424806100606000396000f300608060405260043610610062576000357c0100000000000000000000000000000000000000000000000000000000900463ffffffff16806379ba5097146100675780638863dd1a1461007e5780638da5cb5b146100c1578063d4ee1d9014610118575b600080fd5b34801561007357600080fd5b5061007c61016f565b005b34801561008a57600080fd5b506100bf600480360381019080803573ffffffffffffffffffffffffffffffffffffffff16906020019092919050505061030e565b005b3480156100cd57600080fd5b506100d66103ad565b604051808273ffffffffffffffffffffffffffffffffffffffff1673ffffffffffffffffffffffffffffffffffffffff16815260200191505060405180910390f35b34801561012457600080fd5b5061012d6103d2565b604051808273ffffffffffffffffffffffffffffffffffffffff1673ffffffffffffffffffffffffffffffffffffffff16815260200191505060405180910390f35b600160009054906101000a900473ffffffffffffffffffffffffffffffffffffffff1673ffffffffffffffffffffffffffffffffffffffff163373ffffffffffffffffffffffffffffffffffffffff161415156101cb57600080fd5b600160009054906101000a900473ffffffffffffffffffffffffffffffffffffffff1673ffffffffffffffffffffffffffffffffffffffff166000809054906101000a900473ffffffffffffffffffffffffffffffffffffffff1673ffffffffffffffffffffffffffffffffffffffff167f8be0079c531659141344cd1fd0a4f28419497f9722a3daafe3b4186f6b6457e060405160405180910390a3600160009054906101000a900473ffffffffffffffffffffffffffffffffffffffff166000806101000a81548173ffffffffffffffffffffffffffffffffffffffff021916908373ffffffffffffffffffffffffffffffffffffffff1602179055506000600160006101000a81548173ffffffffffffffffffffffffffffffffffffffff021916908373ffffffffffffffffffffffffffffffffffffffff160217905550565b6000809054906101000a900473ffffffffffffffffffffffffffffffffffffffff1673ffffffffffffffffffffffffffffffffffffffff163373ffffffffffffffffffffffffffffffffffffffff1614151561036957600080fd5b80600160006101000a81548173ffffffffffffffffffffffffffffffffffffffff021916908373ffffffffffffffffffffffffffffffffffffffff16021790555050565b6000809054906101000a900473ffffffffffffffffffffffffffffffffffffffff1681565b600160009054906101000a900473ffffffffffffffffffffffffffffffffffffffff16815600a165627a7a7230582054e551c9a5ba3ee77963126e77b50faa712062dcc503db0d1ec107d277c796e70029",
  "source": "pragma solidity ^0.4.21;\r\n\r\nimport \"./Token.sol\";\r\nimport \"./ERC20.sol\";\r\nimport \"./SafeMath.sol\";\r\nimport \"./ERC223.sol\";\r\nimport \"./ERC223ReceivingContract.sol\";\r\n\r\ncontract Owned {\r\n    address public owner;\r\n    address public newOwner;\r\n\r\n    event OwnershipTransferred(address indexed _from, address indexed _to);\r\n\r\n    function Owned() public {\r\n        owner = msg.sender;\r\n    }\r\n\r\n    modifier onlyOnwer {\r\n        require (msg.sender == owner);\r\n        _;\r\n    }\r\n\r\n    function transferOwnerShip (address _newOwner) public onlyOnwer {\r\n        newOwner = _newOwner;\r\n    }\r\n\r\n    function acceptOwnership() public {\r\n        require(msg.sender == newOwner);\r\n        OwnershipTransferred(owner, newOwner);\r\n        owner = newOwner;\r\n        newOwner = address(0);\r\n    }\r\n\r\n}\r\n\r\ncontract MyToken is Token(\"CTK\",\"Son Toen\",0, 100000), Owned, ERC223, ERC20{\r\n\r\n    using SafeMath for uint256;\r\n\r\n    mapping (address =>uint) internal _balanceOf;\r\n    mapping (address => mapping(address => uint)) internal _allowances;\r\n\r\n    function MyToken() public {\r\n        _balanceOf[msg.sender] = _totalSupply;\r\n    }\r\n\r\n\r\n    function balanceOf(address _owner) public view returns(uint){\r\n        return _balanceOf[_owner];\r\n    }\r\n\r\n    function transfer(address _to, uint _value) public returns (bool){\r\n        return transfer(_to, _value, \"\");\r\n    }\r\n\r\n    //assemble the given address bytecode. If bytecode exists then the _addr is a contract.\r\n    function isContract(address _addr) private view returns (bool is_contract) {\r\n        uint length;\r\n        assembly {\r\n        //retrieve the size of the code on target address, this needs assembly\r\n            length := extcodesize(_addr)\r\n        }\r\n        return (length>0);\r\n    }\r\n\r\n    function transfer(address _to, uint tokens, bytes _data) public returns (bool success){\r\n        if(tokens>0 && _balanceOf[msg.sender] >= tokens){\r\n            if(isContract(_to)){\r\n                ERC223ReceivingContract _contract = ERC223ReceivingContract(_to);\r\n                _contract.tokenFallback(msg.sender,tokens, _data);\r\n            }\r\n            _balanceOf[msg.sender] = _balanceOf[msg.sender].sub(tokens);\r\n            _balanceOf[_to] = _balanceOf[_to].add(tokens);\r\n            emit Transfer(msg.sender, _to,tokens, _data);\r\n            return true;\r\n        } else{\r\n            return false;\r\n        }\r\n    }\r\n\r\n    function transferFrom(address _from, address _to, uint _value) public returns (bool) {\r\n        return transferFrom(_from, _to, _value,\"\");\r\n    }\r\n\r\n    function transferFrom(address _from, address _to, uint _value, bytes _data) public returns (bool) {\r\n        if(_value >0 &&\r\n        _allowances[_from][msg.sender]>= _value &&\r\n        _balanceOf[_from] >= _value){\r\n            if(isContract(_to)){\r\n                ERC223ReceivingContract _contract = ERC223ReceivingContract(_to);\r\n                _contract.tokenFallback(msg.sender,_value, _data);\r\n            }\r\n            _balanceOf[_from] = _balanceOf[_from].sub(_value);\r\n            _balanceOf[_to] = _balanceOf[_to].add(_value);\r\n            emit Transfer(_from, _to, _value);\r\n            return true;\r\n        }\r\n        return false;\r\n    }\r\n\r\n    function approve(address _spender, uint _value)\r\n    public\r\n    returns (bool){\r\n        if(_balanceOf[msg.sender]>= _value){\r\n            _allowances[msg.sender][_spender] = _value;\r\n            emit Approval(msg.sender, _spender, _value);\r\n            return true;\r\n        }\r\n        return false;\r\n    }\r\n\r\n    function allowance(address _owner, address _spender) public view returns (uint)\r\n    {\r\n        if(_allowances[_owner][_spender]< _balanceOf[_owner]){\r\n            return _allowances[_owner][_spender];\r\n        }\r\n        return _balanceOf[_owner];\r\n    }\r\n\r\n    // standard function transfer similar to erc20 transfer without no data\r\n\r\n    //    function transfer(address _to, uint _value) public returns (bool success){\r\n    //        bytes memory empty;\r\n    //        if(isContract(_to)){\r\n    //            return transferToContract(_to,_value, empty);\r\n    //        }else{\r\n    //            return transfereToAddress(_to,_value, empty);\r\n    //        }\r\n    //    }\r\n    //\r\n    //    function transferToAddress(address _to, uint _value, bytes _data) private returns (bool success){\r\n    //        if(_balanceOf[msg.sender] < _value) revert();\r\n    //        _balanceOf[msg.sender] = sub(_balanceOf[msg.sender],tokens);\r\n    //        _balanceOf[_to] = add(_balanceOf[_to], tokens);\r\n    //        Transfer(msg.sender, _to, _value, _data);\r\n    //        return true;\r\n    //    }\r\n    //\r\n    //    function transferToContract(address _to, uint _value, bytes _data) private returns (bool success) {\r\n    //        if(_balanceOf[msg.sender] < _value) revert();\r\n    //        _balanceOf[msg.sender] = sub(_balanceOf[msg.sender],tokens);\r\n    //        _balanceOf[_to] = add(_balanceOf[_to], tokens);\r\n    //\r\n    //        Transfer(msg.sender, _to, _value, _data);\r\n    //        return true;\r\n    //    }\r\n    // dont accept eth\r\n    function() public payable {\r\n        revert();\r\n    }\r\n\r\n    function transferAnyERC20Token(address tokenAddress, uint tokens) public onlyOnwer returns (bool success){\r\n        return ERC20(tokenAddress).transfer(owner,tokens);\r\n    }\r\n\r\n}\r\n\r\n",
  "sourcePath": "D:\\code\\wallet\\contracts\\MyToken.sol",
  "compiler": {
    "name": "solc",
    "version": "0.4.23+commit.124ca40d.Emscripten.clang"
  },
  "schemaVersion": "2.0.0",
  "updatedAt": "2018-05-15T09:39:01.779Z"
}